:100000006F00B047000000007C0900007E0900007E
:1000100000000000000000000000000000000000E0
:1000200000000000000000000000000000000000D0
:100030001C0B000000000000780C00000000000015
:10004000780C0000780C0000780C0000780C0000A0
:10005000780C0000780C0000780C0000780C000090
:10006000780C0000780C0000780C0000780C000080
:10007000780C0000780C0000780C0000780C000070
:10008000780C0000780C0000780C0000780C000060
:10009000780C0000780C0000780C000000000000D4
:1000A000511126C022C206C4828282441244A24058
:1000B000310182802A86014593F6150091C232955E
:1000C00085810606F5F9828000000000634E050276
:1000D00063C305042E86AA857D5515C285466378BF
:1000E000B6006356C00006068606E36CB6FE014500
:1000F00063E4C500918D558D85820582F5FA828075
:100100008682C93F2E8582823305A04063D70500D1
:10011000B305B040C1B7B305B0408682653F330533
:10012000A0408282868263C70500634905005D376F
:100130002E858282B305B040E35B05FE3305A04007
:10014000513F3305B04082820000EFF27FF531115C
:100150002A842EC432C636C83AC0EF00901DAA8445
:10016000B70502002285EF00906039EDEF00701CAA
:100170002AC285452285B7040300EF001056850486
:10018000A6852285EF00505D35CDEF00901AA2477D
:100190002AC201469395170093F5E50F2285B7040F
:1001A0000700EF00305993842408A6852285EF00CC
:1001B000B05A3DC58144C24763C1F40822858545D4
:1001C000EF005053014599A8EF00B0168247058D06
:1001D000E3F8A7F885452285EF00F0561545EF00B6
:1001E000B015EF001015AA84B70502002285EF00B4
:1001F00010583DD5EF00F0138247058DE3F6A7FEBA
:10020000054529A8EF00F01292471D8D8247E3F9BA
:10021000A7F622858545EF00F04D0945510171B5DE
:10022000EF00301192471D8D8247E3F0A7F8228539
:100230008545EF00304C0D45D5B7EF00900FB24724
:100240002AC22285A6978C23EF00104EB70707001D
:10025000938747083EC4A2452285EF00F04F19C19D
:10026000850491BFEF00F00C92471D8D8247E3F4A7
:10027000A7FE22858545EF00F047114545B7EFF20F
:100280003FE231112A842EC432C636C83AC0EF008C
:10029000500AAA84B70502002285EF00504D31EDC7
:1002A000EF0030092AC285452285B7040300EF001C
:1002B000D0428504A6852285EF00104A2DCDEF009F
:1002C0005007A2472AC205469395170093F5E50FFC
:1002D0002285B7040300EF00F0458904A685228536
:1002E000EF0090473DC58144C24763C1F4082285B1
:1002F0008545EF003040014599A8EF009003824703
:10030000058DE3F9A7F885452285EF00D043154513
:10031000EF009002EF00F001AA84B70502002285E9
:10032000EF00F04425D9EF00D0008247058DE3F6B9
:10033000A7FE054529A8EF00C07F92471D8D824783
:10034000E3FAA7F622858545EF00D03A0945510129
:10035000A9BBEF00007E92471D8D8247E3F0A7F80E
:1003600022858545EF0010390D45D5B7EF00607C3B
:10037000B7070300938707042AC23EC4A24522851B
:10038000EF00903D09C92285EF00503AB247A69789
:1003900088A3850491BFEF00C07992471D8D8247E5
:1003A000E3FEA7FC22858545EF00D034114545B713
:1003B000EFF21FCF1307A600931606012E86937542
:1003C000F50F37550040C18213050540BD3BF1B91B
:1003D000EFF21FCD136515001307A6009316060153
:1003E0002E869375F50F37550040C18213050540E1
:1003F000793565B9EFF2DFCA37070020939785009A
:10040000A18193068703DD8D8EA2B0A29305870399
:100410000D46793F19C14D5549B90145F5BFEFF278
:100420003FC893978500A181DD8D37070020931782
:1004300086002182930687035D8E8EA2B2A2930569
:1004400087031146B53719C14D5585B10145F5BF33
:10045000EFF21FC513978500B7060020A18193878F
:100460008603D98D13578601B8A313570601B8B375
:1004700013178600420641822182598E8EA3D2A391
:100480009385860319462D3719C14D5539B9014554
:10049000F5BFEFF2FFC093978500A18137070020D9
:1004A000DD8DB284231CB7020946930587032A8495
:1004B000013719E50546A6852285193F814711C1F7
:1004C000CD573E85DDB6EFF2BFBDB70700201397CD
:1004D0008500A181D98D9384870371118EA0328408
:1004E0009385870309462AC0E135824601C54D55EB
:1004F000110165BEB707002009469385870336853D
:10050000C13D75F59C209830A207BA971EA0CDB7C3
:10051000EFF21FB9054693056008E93D79B6EFF2A1
:100520003FB871112E8413063100930500039537EF
:100530009C81918393C7F7FF858B1CA01101B5B6F1
:10054000EFF21FB613060004930570086535B1BEBF
:10055000EFF21FB5014693057008693DB9B6EFF299
:100560003FB471112E8493053100AA844D3F1306C8
:100570002100930510032685293F01E91C819881FC
:10058000858B6316F70085471CA0110139BE230037
:100590000400E5BFEFF2DFB0896771112A8481445E
:1005A000938747E9338797009385D4021023C205C8
:1005B000C18122858135896785041307B00593873A
:1005C00047E9E391E4FE2285A53FA30101009305DD
:1005D0003100228569379C81FDDB2285153F22850C
:1005E000853F2546A145228531350146AD45228509
:1005F000113511015DBCEFF2BFAA71112E841306F3
:1006000021009305E005C1353C811307E01A63859D
:10061000E7086361F70413071005638DE706636C51
:10062000F70075476384E70679476385E70623107B
:1006300004000545B1A81307D00A638FE704130728
:10064000600D6386E70013070006E392E7FE930759
:10065000100235A81307102E6383E704636DF700BB
:100660001307C01C638DE7021307902DE391E7FC8D
:100670009307800C29A81307F0486385E702130746
:1006800010596381E7021307103ECDB7BD471EA086
:10069000110121BCD147E5BF93072003CDBF9307CC
:1006A0004006F5B79307401FDDB7EFF27F9F71114A
:1006B0002E84130631009305B004E13B9C81514721
:1006C0006397E70085471EA011016FF01F9E294721
:1006D000E39CE7FE8947C5BFEFF29F9C61112EC0E6
:1006E000930561002A84D137388315C78546AA84CB
:1006F0008247631FD70A130720036380E708636EEE
:10070000F7005147638FE704130710026384E7067D
:100710003D476389E702854489A01307800C6387FE
:10072000E7061307401F638CE70613074006E394B0
:10073000E7FE1306102E9305E0052285CD31130642
:10074000803801A875469305E0052285C93913064E
:100750007002930510062285D931268521016FF09C
:10076000DF94130610059305E00522854D39130625
:10077000E006C5B71306600DFDB71306E01A930532
:10078000E005228569391306801EE1B71306103E85
:100790009305E00522856131130660495DBF1306AC
:1007A00010599305E00522859D391306105C55B755
:1007B00013072003638BE704636CF7005147638ED4
:1007C000E7021307100213060006E38EE7F8A1B74D
:1007D0001307800C6384E7041307401F6389E70451
:1007E00013074006E399E7F21306C01C9305E005E2
:1007F000228535311306A01EA9BF79469305E00571
:100800002285313913062002A9B71306D00A9305B1
:10081000E005228529311306600C25BF1306902DB3
:100820009305E0052285E53E1306802F1DB71306CC
:10083000F0489305E0052285DD361306404A11BFD6
:10084000EFF21F867111AE84930521002A8465336F
:1008500019E585476387F4008947638CF4040545EF
:10086000B1A051469305B004228569361D46930513
:1008700000062285413615469305300622859D3EA9
:1008800013068003930590062285AD36130650703B
:100890009305800722856136130660609305A007E3
:1008A0002285B53E01E52C8122853D3511016FF091
:1008B000CFFF29469305B00422852D3E3D46930582
:1008C00000062285053E35469305300622851D36F5
:1008D0001306800B930590062285293E85641386B6
:1008E000D4F09305800722851D3E1386E4E07DB792
:1008F000EFF20FFB6111130661002EC09305E00DAE
:10090000AA84D13682472A842883BE851375F53F91
:100910006883EFF02FFAEF10604AB727000003A6B4
:1009200007EF83A647EFEF00F06BEF1040432A86F6
:100930009305C0062685293E228521016FF0EFF63A
:10094000EFF20FF671112E84130631009305500E4D
:10095000A30101003D3E9C811CA011016FF0EFF44A
:10096000EFF20FF471112E84130621009305600934
:10097000993E3C811EA011016FF02FF301A001A050
:10098000EFF20FF20545292D2522096513050558BB
:10099000EF00407F652A1305803E792A612CE5BF70
:1009A000EFF20FF0371402401C403707FFFC4145BF
:1009B00093E717001CC05C40F98F5CC01C403707F0
:1009C000F7FE7D17F98F1CC01C403707FCFF7D1711
:1009D000F98F1CC05C4041777D17F98F5CC0B70769
:1009E0009F001CC4C9231C4C93E707021CCCB717FB
:1009F000014003A70740938607401377F7F023A031
:100A0000E74003A707401367070823A0E74089478B
:100A10009CCAB7F7FF1F03C5477D9307F00F630418
:100A2000F5007D894923B72702409843C176FD161A
:100A3000719B98C398431367170098C3B717024078
:100A4000D843D8C3D843758FD8C3D843B70600015D
:100A5000D8C39843558F98C3984393166700E3DD36
:100A600006FED843B7160240719BD8C3D84313671C
:100A70002700D8C32147DC42B18BE39EE7FE056720
:100A8000B7E700E037F400E023A0E7105C409305EF
:100A9000803EF99B5CC0B707002003A50701EFF07B
:100AA0006FE308C823240400BD471CC06FF0EFDFCC
:100AB000EFF20FDF371702405C4337040020914606
:100AC000B18B130404016385D700A1466382D70468
:100AD000B7376E01938707601CC0B7160240DC422F
:100AE0000840918313F7F700B707002093870700AA
:100AF000BA978C23DC4293F5F50F93F70708335729
:100B0000B50081E7EFF00FDD2A8718C06FF0EFD94D
:100B10005C43B777DC02938707C07DBF9387019062
:100B20009843050798C3B7F700E023A207007300B6
:100B3000203003A50190828013870190144393878E
:100B400001909843158FE36EA7FE8280EFF24FD598
:100B5000011185454545A301010002C202C402C638
:100B600002C802CA02CC02CEF52185453705200015
:100B7000092399470D447C824C00F1473715014009
:100B80003EC622C4BD2AA1477C824C00C14737150E
:100B900001403EC622C4B522E1679387076A3EC87A
:100BA000B7070040375400403ECAB70700043ECCA8
:100BB0000C08916713050440FC861D248545130528
:100BC000044001268545130504409126A1453715AB
:100BD000014029241305A00F8537A1453715014091
:100BE000E52A1305A00F893F9C819DCF1305900234
:100BF000EFF05F9A85451305900299319305400304
:100C000013059002F5319305200313059002EFF0D0
:100C1000BFAC1305A00F0D3713059002EFF05F92E4
:100C2000014505616FF06FC893053100130590020F
:100C3000013B45BFEFF2CFC671119305310013059B
:100C40009002A3010100EFF09F919C819DC313844A
:100C5000419013059002938541901933130590023A
:100C6000EFF01F8B0E2037250000130585EFEF00F6
:100C7000303511016FF06FC301A0970100209381FF
:100C8000E1BB138181FC171500001305A53C97F506
:100C9000FF1F9385253717F6FF1F1306263A63FAC1
:100CA000C5008322050023A0550011059105E3EA44
:100CB000C5FE17F5FF1F130565389385C19063774F
:100CC000B500232005001105E36DB5FEB722000035
:100CD00093820288739002308D427390428097F223
:100CE000FFFF9382223293E2320073905230EFF092
:100CF0003FCB970200009382E2C8739012347300D6
:100D000020309C45611122C226C013F7070113F35E
:100D1000F70001C7D8413363E30092211377F60F40
:100D200029C783230500014713048002930480042C
:100D30008546B395E600B376B6006392D50293126A
:100D40002700BD46B396560093C6F6FFB3F3760070
:100D5000B3125300B3E37200639787064CC90507CB
:100D6000A146E317D7FC232075001307F00F637823
:100D7000C70483234500A146130480029304800422
:100D80000547B312D700337756006394E2021397F6
:100D900026000117BD45B395E50093C5F5FFB3F3F4
:100DA00075003317E300B363770063928702232A49
:100DB000550085064147E395E6FC23227500124461
:100DC000824421018280E39C97F80CC949BFE392D9
:100DD00097FE23285500F1BF0CC982804CC9828040
:100DE000EFF20FAC111146212A8428002EC0E9220F
:100DF000C246C204C18093F404FCB7450F0093853A
:100E000005243685C20436C2C180EFF0AFAC458DF3
:100E1000420541814AA01E209246C207C183F99B28
:100E2000C207C1831EA082479043E1679387076A88
:100E30009315160063E6C7043685EFF0AFA9AA87BD
:100E40004205418191466373D5009147139507018F
:100E500041814AAC1E20024793E717001EA01E20C6
:100E600056233227C207C183D18E93F757BFD58F40
:100E70001EA016275E27D58F1EA471016FF0EFA26A
:100E80008247EA23B167FD176310F502B2953685F4
:100E9000EFF04FA4420541819317450199E3136593
:100EA0001500A1675D8D75B7B387C5008E07B38543
:100EB000C7003685EFF00FA24205418191675D8D35
:100EC000E1BF1E2189C593E717001EA18280C207DA
:100ED000C183F99BC207C183CDBF1E2189C593E79A
:100EE00007101EA18280C207C18393F7F7EFC207E4
:100EF000C183C5BF1E2189C593E707201EA182803B
:100F0000C207C18393F7F7DFC207C183C5BF1E21A4
:100F100089C593E707401EA18280C207C18393F76A
:100F2000F7BFC207C183C5BF0EA982800A29137506
:100F3000F50F828093F7E50F19C293E71500C207FA
:100F4000C1831EA982801E2189C52167D98F1EA158
:100F50008280C607C583E5BF5E290A2D42055D8DE7
:100F60006D8D220521810D8D133515008280611153
:100F700002C002C293D7C5012AC23EC08247A20561
:100F8000A18199CB9247D1073EC292478843210164
:100F90006D8D3335A00082809247C181E107EDB7A6
:100FA00023A4A1908280371702401C430E0593F7BB
:100FB00077F05D8D08C38280EFF28F8E3717024085
:100FC0005C4391462A84B18B6385D700A146638D2B
:100FD000D706B7376E01938707601CC0B71602406B
:100FE000DC42918313F7F700B7070020938787024D
:100FF000BA978C23DC42184093F5F50F93F7070856
:101000003355B70081E73A85EFF0CF8C48C008C46C
:1010100048C4B7170240DC43AD83FD8B13D73700BC
:101020008A07F18BD98F93F637010D476373D70089
:10103000D1173707002013074701BA978C23EFF029
:101040006F8908C86FF06F865C43B777DC029387BF
:1010500007C061B799C5371702401C4F5D8D08CF97
:101060008280B7170240984F1345F5FF798D88CFDE
:10107000828099C5371702405C4F5D8D48CF8280D2
:10108000B7170240D84F1345F5FF798DC8CF82803E
:10109000EFF20F811629F577FD17F58FF621DA2586
:1010A0002111D58F1EA95625FD779387379FF58F80
:1010B000D6212A842EC0D58F9625D58FB625D58FDB
:1010C0005EA55E29C207C18393F7F7CF5D8F5AA94A
:1010D0004800DD35B747014093870780824563129A
:1010E000F406C2475A24139517003E9542070E0591
:1010F00041873E958C41635807048605EFE09FFDCC
:10110000930540062AC0EFE0FFFC82479314450098
:10111000930540063E85EFE0BFFE5E24C207C1870F
:1011200063D507020E059305400613052503EFE07E
:101130007FFA1D89C98CC204C18006A461016FE0D9
:10114000DFF6B24745B78A0555BF1205930540063D
:1011500013052503EFE01FF83D89E9BF91C55E2522
:101160000967D98F5EA582805A25F977FD17F98F17
:10117000D5BF93F5F51F4EA182800A216D8D3335C1
:10118000A0008280EFE2DFF12A841165111185450C
:1011900013050502C135930700027C803715014015
:1011A0008D473EC28A85E147130505403EC4EFF0F6
:1011B0005FB522C637440140B70708006C0013052D
:1011C00004803ECA02C8231C0100D9358545130599
:1011D0000480693771016FE05FEDEFE27FEC711120
:1011E000AE840144635DC402B747014013870780A2
:1011F0003A859305000432C04937B7470140138749
:101200000780024675D53387840083050700138560
:1012100007800504C205C181A93F0246E1B73285B6
:1012200011016FE09FE8411106C62EC00DCD184197
:10123000AA8705C358417D5511CB8546631BD7004E
:1012400098472300070023A207000545B24041014B
:1012500082809847824614A39847050798C7D843C9
:101260007D17D8C3DDB705468A85853FF9BF0111D3
:1012700022CC2EC206CE26CA2A84814793050002BC
:10128000634506029245BE95838505008DE563D8CA
:10129000C70263D4E702198E1305000293F52600F6
:1012A0002AC089C501E7930500032EC0858A8144C1
:1012B00095EAB2840DA08507F1B71D8EF1BF0146F6
:1012C000E1BF824522853AC832C63EC4A93FA24743
:1012D00032464247FD14E34690FEB2846353060053
:1012E0008144058E63C7E702A687924633879740FD
:1012F00036978305070095EDB284634490046353E9
:1013000006000146F2406244D2443305F60005610E
:1013100082801D8FBA8793050003228532C83EC69E
:101320003AC41137B24722474246FD17EDF7BA9447
:1013300065BF228532C63EC4FD35A24732468507C9
:101340006DB78245228532C43EC2F13DFD1422466E
:10135000924765B7397106DE22DC26DA3EC2328357
:101360003A8689ED92469307000301476C08FC8694
:10137000FD3DF2506254D25421618280AA843684A9
:10138000AE8791CA294701446317E30063D505007E
:10139000B307B04005448646A30901021307310391
:1013A000938666FC36C49A853E8532CA3AC81AC608
:1013B0003EC0EFE0FFD4A546824732434247524643
:1013C00063D4A600A2463695130505039306F7FFDE
:1013D000A30FA7FE9A853E8532CC3ACA1AC83EC6EC
:1013E00036C0EFE03FCFB24742435247624663F90F
:1013F000670401CC29CA9247898BB1C79305D002F3
:10140000268532C40D3522467D169247918B95C3B1
:1014100006479307100632C4930500032685631E12
:10142000F7021135930580072685F53B224609040E
:1014300079161647924682452685153D229515BF99
:10144000AA8702478DB782469307D0020144A38F33
:10145000F6FE9307E7FF3EC04DBFF13393058005CD
:10146000E1B70145828001458280130181FD22D0D0
:1014700026CE06D22AC4AE82328402C68144838537
:10148000020089EDA24781C781453E85693B9250A4
:1014900002542685F2441301810282809307500290
:1014A0006388F500224516C88504B53BC24239A8B9
:1014B0008387120013871200639CB70022459305AF
:1014C00050023AC88D3342478504BA82850245BF2F
:1014D000D5DB9306B0026389D70463C8F600930690
:1014E00030026386D704814705A09306D002638A41
:1014F000D70093060003E398D7FE1387220089479D
:1015000021A0138722008547830607001306B00237
:101510006383C6046341D60213063002638BC6029E
:10152000BA820145A54681A0138722006DBF1387AB
:1015300022009147D1BF1306D0026389C60013066B
:101540000003E39FC6FC93E7270031A0050785470A
:10155000C1BF93E747000507E1B713162500329591
:1015600006053A95850203860200130706FD93756A
:10157000F70FE3F4B6FE1307E0029946631EE60098
:1015800085028146A54503860200130606FD1377F2
:10159000F60F63F5E50236C6038702001306A006C0
:1015A000630DC70A6343E6021306C0046307C70A54
:1015B00013068006630CC70881452DA813972600E3
:1015C000BA968606B29685027DBF1306400763066B
:1015D000C7081306A0076302C7081306C0068145A3
:1015E000631AC700038612008D456314E600850266
:1015F0009145850203860200930300061307100637
:1016000063C4C300130710049303700663C4C306C6
:1016100093035006635576189303700463C1C304A3
:1016200093055004635DB61613073004E310E6EA31
:1016300018409303440016CA230CE1001EC8A30CF3
:1016400001000147BE862A862C0849A8038612009D
:101650008145E311E6FA890271BF8502B1BF9306A5
:101660003006E307D6FC63CFC60693068005630306
:10167000D602A9BD930630076304D60463CBC60225
:101680009306F0066304D60E9306000793E747001F
:10169000E31ED6E291466391D50C930384000C407F
:1016A000504016CA3AC23EC01EC8AA870147C1466A
:1016B00081A893065007630AD6069306800745BFA4
:1016C0001840B726000093034400938586F011C3A9
:1016D000BA85324716CA1EC8BE862A862245EFF052
:1016E0001FB90DA091466394D502930384000C406A
:1016F000504016CA3AC23EC01EC8AA870547A9462E
:1017000022458533C243AA941E84D242C1B3B24655
:101710000C4016C836C23AC011042A8785462946AD
:101720002245EFF03FC3AA9451B39146639DD50083
:10173000930384000C40504016CA3AC23EC01EC8F3
:10174000AA8701476DBFB2460C4016C836C23AC0E0
:1017500011042A878146E1B7B24616C80C404146BB
:1017600036C23AC011042A8781465DBF9146639E06
:10177000D500930384000C40504016CA3AC23EC0C4
:101780001EC8AA870147A146A5BFB2460C4016C88D
:1017900036C23AC011042A878146214651B70C400F
:1017A0001306840040403AC22A87224532C83EC010
:1017B0002286B687A94616CA7D31AA944244B1B79B
:1017C0001301C1FD2EC832CAAA851008014506C6FC
:1017D00036CC3ACE3ED032C0EFF03FC9B240130112
:1017E00041028280130181FC93D3450126D6AA874A
:1017F0009394C50006DA22D813F5F37FB180FD81FA
:1018000075C91307F07F6301E51A13D7D7018E045A
:10181000D98C37078000458F13943700930715C084
:101820003AC43EC08144014393D346019397C60016
:1018300093F3F37FB282B183FD82638F03101307AA
:10184000F07F6385E3048E071357D6015D8FB707DA
:1018500080005D8F8247938313C0931236009E975A
:101860003EC001458243B3C7D5003E8685033EC2D4
:101870001EC6BD4763E597189707000093878769E1
:101880008A04BE9483A304009E97828733E7C7002F
:1018900002461306F67F32C06314071493E4240053
:1018A00081420945C1B702C21307F07FB70708009C
:1018B00001449246B2072285D25042545207B18366
:1018C000FE06D98FD58FB254BE8513018103828065
:1018D00036863AC416842A838947630CF3108D47F1
:1018E000E303F3FC854732C26318F346014781479F
:1018F0000144C1B733E7F4003AC471CF36C632C4ED
:10190000638D043626853EC22EC0292B8245924720
:101910002246B246AA83130755FF7545138483FFF9
:10192000198DB394840033D5A700336795003AC46A
:10193000339487001305D0C0B307754093D3460195
:101940003EC093F3F37F9397C60081440143B28274
:10195000B183FD82E39503EE33E7C7002DC36386B1
:10196000072E3E8532CC36CA1AC82EC63EC25D2925
:101970009247B2454243D2466246AA83130755FFB7
:101980007545938283FF3307E540B397570033577C
:10199000E6005D8FB312560082470145B38377405E
:1019A0009387D3C03EC07DBD3E84C58F3EC489EFC2
:1019B0009307F07FA14401443EC00943B5B593E4C9
:1019C00014008142054579BD9307F07F26C43EC0CF
:1019D000B1440D4391BD9144014402C00543A9B5F2
:1019E00093E434003E870D45B5BD89472E86E31844
:1019F000F3EE32C21307F07F814701445DBDC1643D
:101A00009386F4FFB377D400B3F6D200B68336D012
:101A1000418093D202013E85B685EFE0AFE92A838B
:101A200016C896853E85EFE0EFE8AA829E8522855E
:101A3000EFE04FE8AA83C2452285EFE0AFE7935677
:101A400003019E92B6922ACC63F57200B30695000C
:101A500036CCC1639384F3FFB3F6920033739300E3
:101A6000C206F98C9A96418393D2020136CE3A830C
:101A70003E85A685EFE00FE42A871ACA9A853E853F
:101A8000EFE04FE3AA87A6852285EFE0AFE22A8345
:101A9000D2452285EFE00FE2935607019A97B69759
:101AA00063F367001E9541641306F4FFB3F5C700A6
:101AB000718FC20593D60701B387E500A245825313
:101AC000AA9633F7C5003ED496973EC436D293D734
:101AD00005013A859E85EFE0EFDD2A83C2453A8510
:101AE000EFE04FDDAA829E853E85EFE0AFDCAA8362
:101AF000C2453E85EFE00FDC935603019E92B692FD
:101B000063F372002295C166FD16B3F3D2003373FE
:101B1000D30093D20201C2033384A2009A933A8580
:101B2000A685EFE02FD92A83D2453A85EFE08FD8FA
:101B30002A87A6853E85EFE0EFD7AA82D2453E856B
:101B4000EFE04FD79357030116973E976374570002
:101B5000C1663695C166FD16B377D700C207B37666
:101B6000D3002246E2451253BE96A2572E969A966D
:101B7000B334F600B38796001E96B3858700B3335F
:101B80007600B3827500B3B66600B3B79700DD8EFA
:101B9000B3B58500B3B372004183F247BA96B3E39D
:101BA00075009E961313960036953364F300260550
:101BB00093D77201B366F500333480005D82518C97
:101BC000A60236C4939776003364540063DE0700A0
:101BD0009357140005885D8C93D716003EC4B24716
:101BE0001397F601598C3EC082471387F73F635B1A
:101BF000E00A9377740091CF9377F4009146638A5B
:101C0000D700A2469307440033B48700A29636C497
:101C10003E84A2469397760063DA0700B70700FF79
:101C2000FD17F58F3EC48247138707409307E07F77
:101C300063CFE710A247935634001377F77F1394CE
:101C4000D701A607558CB183ADB132853ECC36CADB
:101C50001AC82EC632C2F92213075501F142930366
:101C600005021246B2454243D246E247E3DAE2D0E9
:101C700061153317A600814205B33E852EC23EC0D2
:101C8000552213075501714393030502824792457C
:101C90002246B246E353E3C86115B397A7003EC49A
:101CA000014449B98547998F39E702472246130510
:101CB000E7413317A4003315A6003354F40033373B
:101CC000E000498C598C937674003357F60081CE2E
:101CD0009377F40091466388D7009307440033B4A8
:101CE000870022973E849317870063DA070405472D
:101CF000814701447DBE93068003E3C9F6BEFD46DD
:101D0000E3D5F6FA224685563387E640930600026D
:101D10003357E6006388D70082479387E743B317BA
:101D2000F6005D8C33348000598C13777400814742
:101D300019CB9377F40091460147E390D7FA9317B4
:101D40009700B18376070D80598C01479DB6130724
:101D5000F07F81470144B1BEB2473EC071B593D711
:101D60004501370310001307F3FF93F7F77F93063E
:101D7000E03F3376B700FD81014763D3F60099C198
:101D80003A8582809306E0417D57E3CBF6FE9306C9
:101D900030439D8EFD453367660063CAD500938747
:101DA000D7BE3317F7003355D500498FD1BF130580
:101DB0003041B307F5403357F700D9B71DCD511166
:101DC00022C206C42A84B9289306E041898EA94715
:101DD00093F6F67F63DDA702930755FFB317F40070
:101DE000B207B1830147A2401244B207D206B183C1
:101DF000D58F3A85BE853101828081478146B20701
:101E0000D206B1830147D58F3A85BE8582802D47A2
:101E1000098FB357E40013065501B2073317C40006
:101E2000B183D1B7C167637CF5029307F00F130745
:101E3000000263EBA700970700009387A711AA97FA
:101E400088233305A740828021819707000093876C
:101E50006710AA97882361473305A7408280B70798
:101E60000001636DF5006181970700009387870E7D
:101E7000AA97882321473305A7408280418197078D
:101E800000009387270DAA97882341473305A74071
:101E9000828000000000000102000208000810011A
:101EA0000100000000FF000F0000000000200B00F8
:101EB00000020A2100000500000000C8000038FFF1
:101EC000010008000001CC0F01F10D01680080083D
:101ED000B8000000000F8900000000000000010FA2
:101EE0000D0E0E000002C7FF9B0000000100000065
:101EF000333333333333F13F44697374616E636555
:101F00002025640D0A000000286E756C6C29000005
:101F1000EEFAFFFFC2F9FFFFC2F9FFFFC0F9FFFFB2
:101F2000C8F9FFFFC8F9FFFF96F9FFFFC0F9FFFFEF
:101F3000C8F9FFFF96F9FFFFC8F9FFFFC0F9FFFFDF
:101F4000DAFAFFFFDAFAFFFFDAFAFFFF96F9FFFF8E
:101F50000001020203030303040404040404040450
:101F60000505050505050505050505050505050521
:101F70000606060606060606060606060606060601
:101F800006060606060606060606060606060606F1
:101F900007070707070707070707070707070707D1
:101FA00007070707070707070707070707070707C1
:101FB00007070707070707070707070707070707B1
:101FC00007070707070707070707070707070707A1
:101FD0000808080808080808080808080808080881
:101FE0000808080808080808080808080808080871
:101FF0000808080808080808080808080808080861
:102000000808080808080808080808080808080850
:102010000808080808080808080808080808080840
:102020000808080808080808080808080808080830
:102030000808080808080808080808080808080820
:102040000808080808080808080808080808080810
:102050000102030405060708010203040506070838
:10206000006CDC020204060804080C10081018209A
:10207000102030402040608001020304050607085C
:08208000010203040506070834
:00000001FF
